S00E00004E6F646520312E737265633F
S11300000C9438000C9455000C9455000C94550035
S11300100C9455000C9455000C9455000C94550008
S11300200C9455000C9455000C9455000C945500F8
S11300300C9455000C9455000C9455000C945500E8
S11300400C9455000C9455000C9455000C945500D8
S11300500C9455000C9455000C9455000C945500C8
S11300600C9455000C9455000C9455000C945500B8
S113007011241FBECFEFD4E0DEBFCDBF11E0A0E05E
S1130080B1E0E0E6FFE002C005900D92A23AB107AC
S1130090D9F721E0A2EAB1E001C01D92AC3AB2075F
S11300A0E1F70E948E020C94AE070C9400005D9B55
S11300B0FECF8CB980E090E008955F9BFECF8CB1B9
S11300C090E0089590BD89B988E18AB98EE880BD31
S11300D06DE570E087E590E00E946204089580E891
S11300E085BF80E280BF089581B3806181BBABE8A6
S11300F0B0E08C9182608C938C9181608C93EAE85F
S1130100F0E08081886080838081806180838C912D
S11301108F778C938C9180648C9381E090E09093A2
S113012087008093860080818B7F808380818D7F90
S113013080838081816080830895E0E0F4E121E898
S11301402083A9E9B9E01197F1F700C0308120E8D4
S11301502083A9E9B9E01197F1F700C02081FC01DF
S1130160308321830895FC01A0E0B4E181E88C93FD
S11301708C9198EF980F885F9083818380E88C93AB
S11301808C9198EF980F885F9283838308950F93DF
S11301901F93CF93DF9300D0CDB7DEB78C01CE0190
S11301A001960E949D009981F80120818181981710
S11301B010F482E001C083E0291708F084E09A81FA
S11301C0F8012381921708F080E0F80122812917B1
S11301D008F081E090E00F900F90DF91CF911F9194
S11301E00F9108958093001008958EEA0E94F20002
S11301F081EA0E94F2008AED0E94F20082E10E94EC
S1130200F20088EC0E94F20088EA0E94F2008FE378
S11302100E94F20085ED0E94F20080E80E94F20044
S113022081E80E94F20080E50E94F20089ED0E94BC
S1130230F20081E20E94F20080E20E94F20082E079
S11302400E94F2008BED0E94F20080E30E94F20013
S11302508DEA0E94F20080E00E94F20084EA0E948B
S1130260F20086EA0E94F2008FEA0E94F2000895EA
S1130270809300120895CF93C82F81E20E94F20068
S11302808C2F0E94F2008FE70E94F200CF91089514
S113029080550E94F2000895CF93DF93EB010E94F2
S11302A04801CE010E943B01DF91CF9108950F9345
S11302B01F93CF93DF9381E20E94F20080E00E94BB
S11302C0F2008FE70E94F20000E010E013C0C801C2
S11302D00E94480180E090E00E943B01C0E0D0E031
S11302E004C080E00E9438012196C038D105CCF3C7
S11302F00F5F1F4F0830110554F360E070E080E099
S113030090E00E944C01DF91CF911F910F910895CD
S1130310CF93DF932FEFAC01249FC001259F900D55
S1130320112464E670E00E941903EB01C150DF4F11
S113033081E80E94F2008C2F0E94F200DF91CF919D
S1130340089588B3806188BB089588B38F7E88BB85
S1130350089580EB87BB81ED8DB90E94A1010895BA
S11303608FB9779BFECF08958FEF8FB9779BFECF20
S11303708FB108950E94A50180EC0E94B0010E94F3
S1130380A1010895CF93C82F0E94A50183E00E9484
S1130390B0018C2F0E94B0010E94B401C82F0E94AA
S11303A0A1018C2FCF910895CF93DF93D82FC62F1F
S11303B00E94A50182E00E94B0018D2F0E94B0012D
S11303C08C2F0E94B0010E94A101DF91CF9108956A
S11303D01F93CF93DF93182FD62FC42F0E94A5010C
S11303E085E00E94B001812F0E94B0018D2F0E94F0
S11303F0B0018C2F0E94B0010E94A101DF91CF9126
S11304001F9108950E94A9010E94BA018CEC94E006
S11304100197F1F700C000008EE00E94C201982FFE
S1130420907E903861F01F928F9383E491E09F93C4
S11304308F930E94AD040F900F900F900F9008952A
S1130440CF93DF93EC010E94A501CE0163E070E03D
S11304500E941903009739F08130910531F0029719
S113046031F081E805C081E803C082E801C084E876
S11304700E94B0010E94A101DF91CF910895482FFD
S113048060EE8FE00E94E801089580E80E943F0238
S113049063E88AE20E94D40169EA89E20E94D401F5
S11304A066E088E20E94D40108950F931F93CF93CE
S11304B0DF938C01FC016081718176956795769557
S11304C067957695679581E30E94D401F801608170
S11304D06295660F607E82E30E94D401F801628116
S11304E085E30E94D401C0E0D0E009C0F801EC0F1C
S11304F0FD1F63818C2F8A5C0E94D4012196F80130
S1130500828190E0C817D9078CF380E090E00E94C4
S11305102002DF91CF911F910F910895CF93DF9324
S1130520CDB7DEB761970FB6F894DEBF0FBECDBF6F
S11305308FE190E00E9462000E9474000E946F00AC
S11305400E94F5000E9402020E9445028EE00E9471
S1130550C2011F928F930BE711E01F930F930E9428
S1130560AD0480E00E943F028EE00E94C2011F920F
S11305708F931F930F930E94AD04CE0101960E94A6
S1130580B30080E20E94F20080E00E94F2000E9428
S1130590570184E690E00E94880188E891E09F93E7
S11305A08F930E94AD0487B38E7F87BB87B38D7F03
S11305B087BB8BE0E6E0F1E0DE01179601900D9237
S11305C08A95E1F72FEF8FEF9EE021508040904015
S11305D0E1F700C000000FB6F894DEBF0FBECDBF38
S11305E08FEF9FE20197F1F700C00000CE01019662
S11305F00E94C700CE0105960E949D008D818A87C6
S11306009E819B87B09B03C091E09C8701C01C86A0
S11306101F928F9386E991E09F938F930E94AD047C
S1130620CE0107960E9455020F900F900F900F90E5
S1130630D7CF97FB072E16F4009407D077FD09D087
S11306400E942D0307FC05D03EF4909581959F4FA1
S11306500895709561957F4F0895AA1BBB1B51E1C6
S113066007C0AA1FBB1FA617B70710F0A61BB70B1E
S1130670881F991F5A95A9F780959095BC01CD01C3
S113068008950F931F93CF93DF938230910510F455
S113069082E090E0E091A401F091A50120E030E037
S11306A0A0E0B0E0309719F14081518102811381BB
S11306B048175907C8F08417950769F4109731F063
S11306C012960C93129713961C9327C00093A401BF
S11306D01093A50122C02115310519F042175307C3
S11306E018F49A01BD01EF01DF01F801DBCF2115F8
S11306F03105F9F0281B390B2430310580F48A8147
S11307009B816115710521F0FB019383828304C0F1
S11307109093A5018093A401FE01329644C0FE018A
S1130720E20FF31F81939193225031093983288377
S11307303AC02091A2013091A301232B41F42091CE
S11307400201309103013093A3012093A20120916F
S11307500001309101012115310541F42DB73EB757
S11307604091040150910501241B350BE091A20135
S1130770F091A301E217F307A0F42E1B3F0B2817F7
S1130780390778F0AC014E5F5F4F2417350748F006
S11307904E0F5F1F5093A3014093A2018193919345
S11307A002C0E0E0F0E0CF01DF91CF911F910F9103
S11307B00895CF93DF93009709F481C0FC01329729
S11307C013821282A091A401B091A501109781F423
S11307D020813181820F931F2091A2013091A301C6
S11307E02817390751F5F093A301E093A20167C0DC
S11307F0ED0120E030E0CE17DF0740F44A815B8151
S11308009E0141155105F1F0EA01F5CFD383C2836E
S113081040815181840F951FC817D90759F48881E5
S11308209981840F951F0296918380838A819B818D
S1130830938382832115310529F4F093A501E09374
S1130840A4013DC0E901FB83EA8349915991C40F96
S1130850D51FEC17FD0761F480819181840F951FEA
S11308600296E90199838883828193819B838A8399
S1130870E0E0F0E012968D919C911397009719F0A7
S1130880FD01DC01F7CF8D919C9111979D012E5FA5
S11308903F4F820F931F2091A2013091A30128178B
S11308A0390769F4309729F41092A5011092A40134
S11308B002C013821282B093A301A093A201DF911C
S11308C0CF9108950F931F93CF93DF93009731F443
S11308D06115710519F480E090E03AC08B01EC01D8
S11308E06EE070E081E090E00E94A406FC01892B98
S11308F091F380E883830115110571F01387028752
S113090081E883838091A6019091A701892B21F42A
S1130910F093A701E093A6012097C9F0D187C0877F
S11309208381826083838091A8019091A901892B9E
S113093071F4F093A901E093A8018091AA01909128
S1130940AB01892B21F4F093AB01E093AA01CF0111
S1130950DF91CF911F910F910895A0E0B0E0E3EBF8
S1130960F4E00C948707AE014B5F5F4FFA0161918D
S11309707191AF018091A8019091A9010E94C304D3
S1130980E2E00C94A307ABE0B0E0E9ECF4E00C94F3
S113099077076C017B018A01FC011782168283812F
S11309A081FFCCC1CE0101963C01F6019381F70190
S11309B093FD859193FF81917F01882309F4BAC146
S11309C0853239F493FD859193FF81917F018532BE
S11309D029F4B60190E00E94DD06E7CF912C212C8A
S11309E0312CFFE1F315D8F08B3279F038F48032F2
S11309F079F08332A1F4232D20611DC08D3261F082
S1130A00803369F4232D216016C0832D8260382E33
S1130A10E32DE4603E2E2AC0F32DF8601DC037FCA0
S1130A202DC020ED280F2A3040F08E32B9F436FC68
S1130A3081C1232D2064322E19C036FE06C08AE0FF
S1130A40989E200D1124922E11C0EAE02E9E200DB6
S1130A501124222EF32DF0623F2E08C08C3621F48F
S1130A60832D8068382E02C0883641F4F70193FD47
S1130A70859193FF81917F018111B3CF982F9F7D41
S1130A809554933028F40C5F1F4F9FE399830DC056
S1130A90833631F0833771F0833509F059C021C0B2
S1130AA0F801808189830E5F1F4F88248394912CE1
S1130AB0530113C02801F2E04F0E511CF801A0802D
S1130AC0B18036FE03C0692D70E002C06FEF7FEF86
S1130AD0C5010E94D2064C018201F32DFF773F2EFF
S1130AE016C0280122E0420E511CF801A080B180FA
S1130AF036FE03C0692D70E002C06FEF7FEFC501C1
S1130B000E94C0064C01F32DF0683F2E820133FC95
S1130B101BC0822D90E088169906B0F4B60180E2DD
S1130B2090E00E94DD062A94F4CFF50137FC85910C
S1130B3037FE81915F01B60190E00E94DD0621102D
S1130B402A9421E0821A91088114910471F7E8C073
S1130B50843611F0893641F5F80137FE07C060810B
S1130B607181828193810C5F1F4F08C06081718104
S1130B70072E000C880B990B0E5F1F4FF32DFF7689
S1130B803F2E97FF09C090958095709561957F4F92
S1130B908F4F9F4FF0683F2E2AE030E0A3010E9460
S1130BA01907882E861845C0853731F4232D2F7EEA
S1130BB0B22E2AE030E025C0932D997FB92E8F36CE
S1130BC0C1F018F4883579F0B5C0803719F088374A
S1130BD021F0B0C0E92FE061BE2EB4FE0DC0FB2DA4
S1130BE0F460BF2E09C034FE0AC0292F2660B22E3D
S1130BF006C028E030E005C020E130E002C020E17A
S1130C0032E0F801B7FE07C060817181828193816F
S1130C100C5F1F4F06C06081718180E090E00E5F21
S1130C201F4FA3010E941907882E8618FB2DFF77FA
S1130C303F2E36FE0DC0232D2E7FA22E891458F48C
S1130C4034FE0BC032FC09C0832D8E7EA82E05C055
S1130C50B82CA32C03C0B82C01C0B92CA4FE0FC01F
S1130C60FE01E80DF11D8081803321F49A2D997ED7
S1130C70A92E09C0A2FE06C0B394B39404C08A2D61
S1130C80867809F0B394A3FC11C0A0FE06C0B21488
S1130C9088F4280C922C9B180EC0B21460F4B60190
S1130CA080E290E00E94DD06B394F7CFB21418F40A
S1130CB02B1802C0982C212CA4FE10C0B60180E38E
S1130CC090E00E94DD06A2FE17C0A1FC03C088E7E5
S1130CD090E002C088E590E0B6010CC08A2D8678C9
S1130CE059F0A1FE02C08BE201C080E2A7FC8DE2B4
S1130CF0B60190E00E94DD06891438F4B60180E361
S1130D0090E00E94DD069A94F7CF8A94F301E80DEF
S1130D10F11D8081B60190E00E94DD068110F5CFBF
S1130D20222009F442CEB60180E290E00E94DD0662
S1130D302A94F6CFF6018681978102C08FEF9FEF48
S1130D402B96E2E10C9493070F931F93CF93DF93B9
S1130D50869F8001879F100D969F100D1124C80156
S1130D600E944103EC01009729F0A80160E070E0C3
S1130D700E94CB06CE01DF91CF911F910F91089570
S1130D80FC010590615070400110D8F78095909552
S1130D908E0F9F1F0895DC0101C06D934150504098
S1130DA0E0F70895FC016150704001900110D8F7FC
S1130DB0809590958E0F9F1F08950F931F93CF9347
S1130DC0DF93FB01238121FD03C08FEF9FEF2CC034
S1130DD022FF16C04681578124813581421753076B
S1130DE044F4A081B1819D012F5F3F4F3183208363
S1130DF08C93268137812F5F3F4F3783268314C01E
S1130E008B01EC01FB010084F185E02D0995892B10
S1130E10E1F6D80116968D919C9117970196179635
S1130E209C938E931697CE01DF91CF911F910F91D2
S1130E300895FA01AA27283051F1203181F1E8946C
S1130E406F936E7F6E5F7F4F8F4F9F4FAF4FB1E0B9
S1130E503ED0B4E03CD0670F781F891F9A1FA11DB4
S1130E60680F791F8A1F911DA11D6A0F711D811DB5
S1130E70911DA11D20D009F468943F912AE0269F7A
S1130E8011243019305D3193DEF6CF010895462FD9
S1130E904770405D4193B3E00FD0C9F7F6CF462FBA
S1130EA04F70405D4A3318F0495D31FD4052419323
S1130EB002D0A9F7EACFB4E0A695979587957795E0
S1130EC06795BA95C9F700976105710508959B0167
S1130ED0AC010A2E06945795479537952795BA95F0
S1130EE0C9F7620F731F841F951FA01D08952F92C9
S1130EF03F924F925F926F927F928F929F92AF92A6
S1130F00BF92CF92DF92EF92FF920F931F93CF93F2
S1130F10DF93CDB7DEB7CA1BDB0B0FB6F894DEBF89
S1130F200FBECDBF09942A88398848885F846E84AF
S1130F307D848C849B84AA84B984C884DF80EE80F9
S1130F40FD800C811B81AA81B981CE0FD11D0FB602
S1130F50F894DEBF0FBECDBFED010895F894FFCF26
S1130F600000AC01200001000800000000000000A7
S1130F70004869676873636F726573737373730092
S1130F80506C61792067616D652031206F72206734
S1130F90616D6520323F0067616D65310067616D89
S1130FA06532004D4350323531352069736E2774F4
S1130FB020696E20636F6E666967206D6F646520BB
S1130FC061667465722072657365742E2043414EA8
S1130FD0535441543A2025780D0A000D0A4D4F44CC
S1130FE0453A2025780D0A000D0A424547494E2D01
S1130FF02D2D2D2D2D0058414B53453A2025640AA3
S10510000D00DD
S9030000FC
