S01700004763634170706C69636174696F6E312E737265635B
S11300000C9426010C9443010C9443010C94430179
S11300100C9443010C9443010C9443010C9443014C
S11300200C9443010C9443010C9443010C9443013C
S11300300C9443010C9443010C9443010C9443012C
S11300400C9443010C9443010C9443010C9443011C
S11300500C9443010C9443010C9443010C9443010C
S11300600C9443010C9443010C9443010C944301FC
S1130070000000000000005F0000000700070014FB
S11300807F147F14242A7F2A1223130864623649BA
S11300905522500005030000001C224100004122AB
S11300A01C00082A1C2A0808083E080800503000D2
S11300B00008080808080060600000201008040216
S11300C03E5149453E00427F40004261514946212C
S11300D041454B311814127F1027454545393C4A98
S11300E049493001710905033649494936064949E8
S11300F0291E00363600000056360000000814227F
S11301004114141414144122140800020151090664
S1130110324979413E7E1111117E7F494949363E6B
S1130120414141227F4141221C7F494949417F0984
S11301300901013E414151327F0808087F00417F97
S113014041002040413F017F081422417F4040404C
S1130150407F0204027F7F0408107F3E4141413EFC
S11301607F090909063E4151215E7F091929464646
S11301704949493101017F01013F4040403F1F206F
S113018040201F7F2018207F631408146303047821
S11301900403615149454300007F414102040810B2
S11301A02041417F000004020102044040404040DD
S11301B0000102040020545454787F4844443838E1
S11301C044444420384444487F3854545418087EE6
S11301D0090102081454543C7F0804047800447D47
S11301E040002040443D00007F10284400417F40EF
S11301F0007C041804787C080404783844444438A7
S11302007C14141408081414187C7C08040408488A
S113021054545420043F4440203C4040207C1C2043
S113022040201C3C4030403C44281028440C505092
S1130230503C4464544C44000836410000007F00A4
S113024000004136080002010302010011241FBE10
S1130250CFEFD4E0DEBFCDBF11E0A0E0B1E0E4ED2C
S1130260F7E102C005900D92AE3EB107D9F721E047
S1130270AEEEB1E001C01D92AC3FB207E1F70E94BF
S11302801B050C94E80B0C9400005D9BFECF8CB90D
S113029080E090E008955F9BFECF8CB190E00895DC
S11302A0089590BD89B988E18AB98EE880BD6BE470
S11302B071E085E491E00E944A08089580E885BFD2
S11302C080E280BF089581B3806181BBABE8B0E078
S11302D08C9182608C938C9181608C93EAE8F0E03D
S11302E08081886080838081806180838C918F7716
S11302F08C938C9180648C9381E090E09093870040
S11303008093860080818B7F808380818D7F808332
S11303108081816080830895E0E0F4E121E8208316
S1130320A9E9B9E01197F1F700C0308120E82083F2
S1130330A9E9B9E01197F1F700C02081FC013083ED
S113034021830895FC01A0E0B4E181E88C938C91B1
S113035098EF980F885F9083818380E88C938C91C9
S113036098EF980F885F9283838308950F931F9368
S1130370CF93DF9300D0CDB7DEB78C01CE010196C9
S11303800E948C019981F80120818181981710F4D1
S113039082E001C083E0291708F084E09A81F80123
S11303A02381921708F080E0F8012281291708F0D0
S11303B081E090E00F900F90DF91CF911F910F910A
S11303C008958093001008958EEA0E94E10181EA65
S11303D00E94E1018AED0E94E10182E10E94E101B3
S11303E088EC0E94E10188EA0E94E1018FE30E9407
S11303F0E10185ED0E94E10180E80E94E10181E8CC
S11304000E94E10180E50E94E10189ED0E94E10181
S113041081E20E94E10180E20E94E10182E00E9407
S1130420E1018BED0E94E10180E30E94E1018DEA8C
S11304300E94E10180E00E94E10184EA0E94E1015E
S113044086EA0E94E1018FEA0E94E1010895809307
S113045000120895CF93C82F81E20E94E1018C2FEE
S11304600E94E1018FE70E94E101CF910895805538
S11304700E94E1010895CF93DF93EB010E943702BC
S1130480CE010E942A02DF91CF9108950F931F930A
S1130490CF93DF9381E20E94E10180E00E94E101B9
S11304A08FE70E94E10100E010E013C0C8010E9440
S11304B0370280E090E00E942A02C0E0D0E004C04D
S11304C080E00E9427022196C038D105CCF30F5F4B
S11304D01F4F0830110554F360E070E080E090E0B5
S11304E00E943B02DF91CF911F910F910895CF930A
S11304F0DF930E94370280E090E00E942A02C0E06D
S1130500D0E004C080E00E9427022196C038D105C3
S1130510CCF3DF91CF910895CF93DF932FEFAC010C
S1130520249FC001259F900D112464E670E00E9471
S11305300107EB01C150DF4F81E80E94E1018C2FDC
S11305400E94E101DF91CF9108950F931F93CF9300
S1130550DF938C0100521109C0E0D0E00FC0F80114
S1130560EE0FFF1FEE0FFF1FE00FF11FEC0FFD1F3B
S1130570E059FF4F84910E9427022196C530D1058E
S113058074F3DF91CF911F910F9108950F931F93EF
S1130590CF93DF938C01C0E0D0E008C0F801EC0FEA
S11305A0FD1F808190E00E94A5022196F801019030
S11305B00020E9F73197E01BF10BCE17DF0770F34A
S11305C0DF91CF911F910F9108950E94460281E11E
S11305D091E00E94C60260E070E081E090E00E9439
S11305E03B028AE191E00E94C602089560E070E057
S11305F080E090E00E943B0280E090E00E9477025D
S11306008EE291E00E94C60208950F931F93CF9348
S1130610DF9300D000D000D0CDB7DEB79F938F9387
S113062087E391E09F938F938E010F5F1F4F1F937A
S11306300F930E94DB08C8010E94C6020F900F901E
S11306400F900F900F900F9026960FB6F894DEBF80
S11306500FBECDBFDF91CF911F910F91089560E23E
S113066070E084E090E00E943B028AE391E00E9403
S1130670C6028091F0019091F1010E940503089552
S1130680CF93DF93EC010E94460260E070E080E0CB
S113069090E00E943B0286E491E00E94C602CE01F3
S11306A00E940503DF91CF91089588E10E942702FB
S11306B088E10E9427028EE70E9427028CE30E94B1
S11306C0270288E10E9427020895EF92FF920F9378
S11306D01F93CF93DF93EC017B018A0186E090E0C6
S11306E00E942907FC01F182E08213830283D583EF
S11306F0C48320E030E002C02F5F3F4FF9013396FE
S1130700EE0FFF1FEC0FFD1F40815181452BA1F718
S1130710F9013396EE0FFF1FEC0FFD1F91838083C9
S1130720DF91CF911F910F91FF90EF900895209149
S1130730EE013091EF018217930744F09093F10199
S11307408093F0019093EF018093EE01089588B3B4
S1130750806188BB089588B38F7E88BB089580EB41
S113076087BB81ED8DB90E94A70308958FB9779B4C
S1130770FECF08958FEF8FB9779BFECF8FB1089589
S11307800E94AB0380EC0E94B6030E94A703089565
S1130790CF93C82F0E94AB0383E00E94B6038C2F33
S11307A00E94B6030E94BA03C82F0E94A7038C2F8D
S11307B0CF910895CF93DF93D82FC62F0E94AB0318
S11307C082E00E94B6038D2F0E94B6038C2F0E94F4
S11307D0B6030E94A703DF91CF9108951F93CF938F
S11307E0DF93182FD62FC42F0E94AB0385E00E94FD
S11307F0B603812F0E94B6038D2F0E94B6038C2F5F
S11308000E94B6030E94A703DF91CF911F91089520
S11308100E94AF030E94C0038CEC94E00197F1F7AF
S113082000C000008EE00E94C803982F907E90388C
S113083061F01F928F938EE491E09F938F930E94B7
S113084095080F900F900F900F900895CF93DF931A
S1130850EC010E94AB03CE0163E070E00E9401074B
S1130860009739F08130910531F0029731F081E839
S113087005C081E803C082E801C084E80E94B60391
S11308800E94A703DF91CF910895482F60EE8FE077
S11308900E94EE03089580E80E94450463E88AE21A
S11308A00E94DA0369EA89E20E94DA0366E088E2D8
S11308B00E94DA0308950F931F93CF93DF938C0163
S11308C0FC0160817181769567957695679576953B
S11308D0679581E30E94DA03F80160816295660FEF
S11308E0607E82E30E94DA03F801628185E30E945C
S11308F0DA03C0E0D0E009C0F801EC0FFD1F63810A
S11309008C2F8A5C0E94DA032196F801828190E0A0
S1130910C817D9078CF380E090E00E942604DF9189
S1130920CF911F910F9108950F931F93CF93DF934E
S11309308C018BE0F80111928A95E9F78CE20E9410
S1130940C80380FF37C082E60E94C803C82FC2953F
S1130950C695C77081E60E94C80390E0880F991F6E
S1130960880F991F880F991F8C0F911DF80191838F
S1130970808385E60E94C803F8018283883010F0E2
S113098087E08283C0E0D0E00EC040E062E08CE209
S11309900E94EE038C2F8A590E94C803F801EC0FC1
S11309A0FD1F83832196F801828190E0C817D9073F
S11309B064F33BC08CE20E94C80381FF36C082E727
S11309C00E94C803C82FC295C695C77081E70E94CC
S11309D0C80390E0880F991F880F991F880F991FEB
S11309E08C0F911DF8019183808385E70E94C803D1
S11309F0F8018283883010F087E08283C0E0D0E081
S1130A0009C08C2F8A580E94C803F801EC0FFD1FFF
S1130A1083832196F801828190E0C817D9078CF36B
S1130A2040E062E08CE20E94EE03C801DF91CF91C6
S1130A301F910F910895CF93DF93CDB7DEB7AE9793
S1130A400FB6F894DEBF0FBECDBF8FE190E00E94D9
S1130A5051010E9463010E945E010E94E4010E9410
S1130A6008040E944B048EE00E94C8031F928F93D7
S1130A7006E811E01F930F930E94950880E00E94FE
S1130A8045048EE00E94C8031F928F931F930F9317
S1130A900E949508CE0101960E94A20180E20E9464
S1130AA0E10180E00E94E1010E94460284E690E0B8
S1130AB00E948C0283E991E09F938F930E94950892
S1130AC087B38E7F87BB87B38D7F87BB8BE0E6E0E0
S1130AD0F1E0DE01179601900D928A95E1F786E028
S1130AE090E00E9429078C014FE253E061EA71E033
S1130AF00E9465036C0140E551E06FEA71E0C801B2
S1130B000E9465039EA78DA745EE52E068EB71E055
S1130B100E9465039AA789A746EF52E061EC71E051
S1130B208DA59EA50E9465039CA78BA740E453E076
S1130B306AEC71E08DA59EA50E9465032C0187EDEA
S1130B4091E00E94AB082FEF8FEF9EE02150804090
S1130B509040E1F700C000000FB6F894DEBF0FBE6E
S1130B60CDBFA12CB12CE12CF12C00E010E0612CC4
S1130B70712CB2E0B8A76894332431F8CE01019601
S1130B800E94B6014C01EFEFFFE23197F1F700C08C
S1130B90000081E08D871A861B86CE0107960E948D
S1130BA05B04F8A5F81521F1992421E0821691043B
S1130BB0E1F01CF4892859F008C093E089169104E7
S1130BC071F0A4E08A16910429F038A611C038A661
S1130BD0312C0EC038A66894332432F809C038A6E4
S1130BE00F2EF3E03F2EF02D03C038A633243394A8
S1130BF061147104F9F460E070E0C3010E943B02E7
S1130C000E945503F601808191810E94C60243012E
S1130C10F2E08F0E911CC4010E94770265E070E03F
S1130C20C4010E943B02ADA5BEA58D919C910E947A
S1130C30C60222C0B2E06B167104F1F44301E2E093
S1130C408E1A9108C4010E94770265E070E0C40125
S1130C500E943B02D6018D919C910E94C60260E0E5
S1130C6070E0C3010E943B020E945503EDA5FEA55E
S1130C70808191810E94C602F1E03F1207C0611495
S1130C80710421F46894662461F8712C311006C053
S1130C9022E06216710411F4612C712CB09B07C020
S1130CA06114710421F40E94460201E010E0B09B3B
S1130CB02DC082E06816710449F581E08D87CE016C
S1130CC007960E945B040E944602A0E0B0EF1197D1
S1130CD0F1F7CE0142960E949404E0E0F0EF3197E0
S1130CE0F1F702E010E012C060E070E080E090E014
S1130CF00E943B02D6011296ED91FC91139709953F
S1130D00B19B04C00E94460200E010E001301105CE
S1130D1059F372C0CE0105960E948C018D818A8799
S1130D208E818B87CE0107960E945B04CE014D967F
S1130D300E9494048BE0FE017D96DE0152960190A0
S1130D400D928A95E1F79D88992009F445C08E8912
S1130D50883CE8F0A9A5BAA51296ED91FC911397E9
S1130D600995C7010E949703BFEFEFEFFDE1B15072
S1130D70E040F040E1F700C000001A861B86CE0177
S1130D8007960E945B040E94460200E010E0E92CF2
S1130D90F12CAE14BF0441F0D2011296ED91FC91F6
S1130DA01397C70109955701BFEFEB16F104A1F49E
S1130DB0ABA5BCA51296ED91FC9113970995BFEFD5
S1130DC0EFEFFEE0B150E040F040E1F700C000007A
S1130DD00E944602E12CF12CB19B07C081E08D8773
S1130DE00E94460200E010E001C01D86B09B03C0D3
S1130DF081E08C8701C01C860230110509F48ACF7A
S1130E00BDCE97FB072E16F4009407D077FD09D0CA
S1130E100E94150707FC05D03EF4909581959F4FDD
S1130E200895709561957F4F0895AA1BBB1B51E1EE
S1130E3007C0AA1FBB1FA617B70710F0A61BB70B46
S1130E40881F991F5A95A9F780959095BC01CD01EB
S1130E5008950F931F93CF93DF938230910510F47D
S1130E6082E090E0E091F401F091F50120E030E0BF
S1130E70A0E0B0E0309719F14081518102811381E3
S1130E8048175907C8F08417950769F4109731F08B
S1130E9012960C93129713961C9327C00093F40197
S1130EA01093F50122C02115310519F0421753079B
S1130EB018F49A01BD01EF01DF01F801DBCF211520
S1130EC03105F9F0281B390B2430310580F48A816F
S1130ED09B816115710521F0FB019383828304C01A
S1130EE09093F5018093F401FE01329644C0FE0113
S1130EF0E20FF31F819391932250310939832883A0
S1130F003AC02091F2013091F301232B41F4209156
S1130F100201309103013093F3012093F2012091F7
S1130F200001309101012115310541F42DB73EB77F
S1130F304091040150910501241B350BE091F2010D
S1130F40F091F301E217F307A0F42E1B3F0B2817CF
S1130F50390778F0AC014E5F5F4F2417350748F02E
S1130F604E0F5F1F5093F3014093F20181939193CD
S1130F7002C0E0E0F0E0CF01DF91CF911F910F912B
S1130F800895CF93DF93009709F481C0FC01329751
S1130F9013821282A091F401B091F501109781F4AB
S1130FA020813181820F931F2091F2013091F3014E
S1130FB02817390751F5F093F301E093F20167C064
S1130FC0ED0120E030E0CE17DF0740F44A815B8179
S1130FD09E0141155105F1F0EA01F5CFD383C28397
S1130FE040815181840F951FC817D90759F488810E
S1130FF09981840F951F0296918380838A819B81B6
S1131000938382832115310529F4F093F501E0934C
S1131010F4013DC0E901FB83EA8349915991C40F6E
S1131020D51FEC17FD0761F480819181840F951F12
S11310300296E90199838883828193819B838A83C1
S1131040E0E0F0E012968D919C911397009719F0CF
S1131050FD01DC01F7CF8D919C9111979D012E5FCD
S11310603F4F820F931F2091F2013091F301281713
S1131070390769F4309729F41092F5011092F401BC
S113108002C013821282B093F301A093F201DF91A4
S1131090CF9108950F931F93CF93DF93009731F46B
S11310A06115710519F480E090E03AC08B01EC0100
S11310B06EE070E081E090E00E94DE0AFC01892B82
S11310C091F380E883830115110571F0138702877A
S11310D081E883838091F6019091F701892B21F4B3
S11310E0F093F701E093F6012097C9F0D187C08708
S11310F08381826083838091F8019091F901892B27
S113110071F4F093F901E093F8018091FA01909160
S1131110FB01892B21F4F093FB01E093FA01CF0149
S1131120DF91CF911F910F910895A0E0B0E0EBE91A
S1131130F8E00C94C10BAE014B5F5F4FFA01619173
S11311407191AF018091F8019091F9010E94FD081D
S1131150E2E00C94DD0B0F931F93CF93DF93E091A8
S1131160F801F091F901238121FF1BC08C01D0E02B
S1131170C0E0F80181918F016091F8017091F9014B
S1131180DB011896ED91FC911997882331F00995AC
S1131190892B79F3DFEFCFEFECCF8AE00995892B28
S11311A019F08FEF9FEF02C08D2F9C2FDF91CF910D
S11311B01F910F910895AEE0B0E0E1EEF8E00C94D9
S11311C0BF0B0D891E8986E08C831A8309838FEFF8
S11311D09FE79E838D83AE01475E5F4F6F89788D55
S11311E0CE0101960E94FD08EF81F885E00FF11F02
S11311F010822E96E4E00C94DB0BABE0B0E0E3E06D
S1131200F9E00C94B10B6C017B018A01FC0117829B
S11312101682838181FFCCC1CE0101963C01F60187
S11312209381F70193FD859193FF81917F01882339
S113123009F4BAC1853239F493FD859193FF819104
S11312407F01853229F4B60190E00E94170BE7CFA5
S1131250912C212C312CFFE1F315D8F08B3279F04D
S113126038F4803279F08332A1F4232D20611DC03B
S11312708D3261F0803369F4232D216016C0832DF3
S11312808260382EE32DE4603E2E2AC0F32DF860F0
S11312901DC037FC2DC020ED280F2A3040F08E32BF
S11312A0B9F436FC81C1232D2064322E19C036FED8
S11312B006C08AE0989E200D1124922E11C0EAE007
S11312C02E9E200D1124222EF32DF0623F2E08C0F5
S11312D08C3621F4832D8068382E02C0883641F480
S11312E0F70193FD859193FF81917F018111B3CF24
S11312F0982F9F7D9554933028F40C5F1F4F9FE3E4
S113130099830DC0833631F0833771F0833509F04A
S113131059C021C0F801808189830E5F1F4F882442
S11313208394912C530113C02801F2E04F0E511CF9
S1131330F801A080B18036FE03C0692D70E002C0C0
S11313406FEF7FEFC5010E940C0B4C018201F32D5E
S1131350FF773F2E16C0280122E0420E511CF801EF
S1131360A080B18036FE03C0692D70E002C06FEF2B
S11313707FEFC5010E94FA0A4C01F32DF0683F2E5D
S1131380820133FC1BC0822D90E088169906B0F4CC
S1131390B60180E290E00E94170B2A94F4CFF50185
S11313A037FC859137FE81915F01B60190E00E9480
S11313B0170B21102A9421E0821A910881149104B8
S11313C071F7E8C0843611F0893641F5F80137FE2B
S11313D007C060817181828193810C5F1F4F08C0B7
S11313E060817181072E000C880B990B0E5F1F4FD3
S11313F0F32DFF763F2E97FF09C090958095709549
S113140061957F4F8F4F9F4FF0683F2E2AE030E069
S1131410A3010E94530B882E861845C0853731F4EA
S1131420232D2F7EB22E2AE030E025C0932D997F04
S1131430B92E8F36C1F018F4883579F0B5C08037ED
S113144019F0883721F0B0C0E92FE061BE2EB4FE58
S11314500DC0FB2DF460BF2E09C034FE0AC0292F35
S11314602660B22E06C028E030E005C020E130E05E
S113147002C020E132E0F801B7FE07C0608171814B
S1131480828193810C5F1F4F06C06081718180E06F
S113149090E00E5F1F4FA3010E94530B882E861805
S11314A0FB2DFF773F2E36FE0DC0232D2E7FA22E5F
S11314B0891458F434FE0BC032FC09C0832D8E7E8F
S11314C0A82E05C0B82CA32C03C0B82C01C0B92C7D
S11314D0A4FE0FC0FE01E80DF11D8081803321F4CC
S11314E09A2D997EA92E09C0A2FE06C0B394B39486
S11314F004C08A2D867809F0B394A3FC11C0A0FE21
S113150006C0B21488F4280C922C9B180EC0B21496
S113151060F4B60180E290E00E94170BB394F7CF19
S1131520B21418F42B1802C0982C212CA4FE10C05D
S1131530B60180E390E00E94170BA2FE17C0A1FC45
S113154003C088E790E002C088E590E0B6010CC0D3
S11315508A2D867859F0A1FE02C08BE201C080E298
S1131560A7FC8DE2B60190E00E94170B891438F4B1
S1131570B60180E390E00E94170B9A94F7CF8A9407
S1131580F301E80DF11D8081B60190E00E94170B74
S11315908110F5CF222009F442CEB60180E290E01A
S11315A00E94170B2A94F6CFF6018681978102C018
S11315B08FEF9FEF2B96E2E10C94CD0B0F931F93CB
S11315C0CF93DF93869F8001879F100D969F100D08
S11315D01124C8010E942907EC01009729F0A801F1
S11315E060E070E00E94050BCE01DF91CF911F9166
S11315F00F910895FC010590615070400110D8F7D7
S1131600809590958E0F9F1F0895DC0101C06D9306
S113161041505040E0F70895FC0161507040019042
S11316200110D8F7809590958E0F9F1F08950F9302
S11316301F93CF93DF93FB01238121FD03C08FEF21
S11316409FEF2CC022FF16C046815781248135812B
S11316504217530744F4A081B1819D012F5F3F4F8E
S1131660318320838C93268137812F5F3F4F3783CB
S1131670268314C08B01EC01FB010084F185E02D6D
S11316800995892BE1F6D80116968D919C911797AF
S1131690019617969C938E931697CE01DF91CF9166
S11316A01F910F910895FA01AA27283051F1203192
S11316B081F1E8946F936E7F6E5F7F4F8F4F9F4FE2
S11316C0AF4FB1E03ED0B4E03CD0670F781F891F24
S11316D09A1FA11D680F791F8A1F911DA11D6A0FF2
S11316E0711D811D911DA11D20D009F468943F91A5
S11316F02AE0269F11243019305D3193DEF6CF01A4
S11317000895462F4770405D4193B3E00FD0C9F769
S1131710F6CF462F4F70405D4A3318F0495D31FDD6
S11317204052419302D0A9F7EACFB4E0A695979529
S1131730879577956795BA95C9F7009761057105FF
S113174008959B01AC010A2E069457954795379549
S11317502795BA95C9F7620F731F841F951FA01DA3
S113176008952F923F924F925F926F927F928F9241
S11317709F92AF92BF92CF92DF92EF92FF920F931C
S11317801F93CF93DF93CDB7DEB7CA1BDB0B0FB626
S1131790F894DEBF0FBECDBF09942A8839884888E3
S11317A05F846E847D848C849B84AA84B984C88479
S11317B0DF80EE80FD800C811B81AA81B981CE0F70
S11317C0D11D0FB6F894DEBF0FBECDBFED01089555
S10717D0F894FFCFB7
S11317D40000FC01200001000800000000000000DB
S11317E400596F75207375636B0054686572656680
S11317F46F726520796F75206C6F73652100594F82
S11318045520574F4E210025640048696768736367
S11318146F72653A200053636F7265203A004D433A
S113182450323531352069736E277420696E206314
S11318346F6E666967206D6F646520616674657296
S11318442072657365742E2043414E535441543AB7
S11318542025780D0A000D0A4D4F44453A20257879
S11318640D0A000D0A424547494E2D2D2D2D2D2DCF
S113187400566973204869676873636F7265004E24
S113188465772047616D650047616D656C6F73739F
S113189400576F6E2067616D650047616D65207246
S11318A4756E6E696E67000D0A2D2D2D2D2D2D2D4F
S11118B42D2D2D2D2D2D2D2D2D2D2D2D2D00D9
S9030000FC
